:020000040800F2
:10000000711106C097000000E7808000130141FDD8
:1000100006D422D226D037F5FF1F8345457D938530
:1000200015F081CDB715024090410345457D13760B
:1000300076F06E056181518D88C1372502400C41F3
:10004000B7140240F19985050CC1C840C17593856C
:10005000C5F06D8DC8C08840B70500014D8D88C0C2
:1000600088401A05E35E05FEC84071990905C8C0BD
:100070002145CC40B189E39EA5FE884C136555030C
:1000800088CC884C372401409165938515024D8DAD
:10009000894588CC1545A307B1002307A100230893
:1000A000B100A308A1000808A54597000000E7805B
:1000B0002048374501409305001A23260580232454
:1000C000B580896523280580232A0580A10523267C
:1000D000B5800945A305A1002305A1002306A100C1
:1000E000A306A1006800814597000000E780404416
:1000F000884C1365052088CC05459304044088C4CA
:10010000054597000000E7800017884413658500C7
:1001100088C40325844021896DFD0325844013652F
:1001200045002324A4400325844011896DFD8144AA
:100130008325844037061E00B70600019D470567EA
:10014000D18D2324B440FD162328D440930547CEF7
:100150002EC063E8A702232604428D45930604407F
:10016000CCDA8C4637064000D18D8CC683250440FE
:100170008989EDDD8325C44493F5F53FAE940505EB
:10018000C9BF8D802685824597000000E780204109
:100190009305F03F97000000E780E0412AC29145B7
:1001A000370500081305A56E97000000E780E035CD
:1001B00037050008130545702AC8370500201305C8
:1001C00005002ACA130500062ACC02CE08083146CB
:1001D000B70500089385256F97000000E780E02AA7
:1001E000420551E10808A68597000000E780400B12
:1001F000420535E908080946B70500089385E56F0B
:1002000097000000E7806028420531ED080892451C
:1002100097000000E780C008420531E5080809465C
:10022000B70500089385057097000000E780E0257A
:10023000420515E95245F24597000000E780E02CA1
:100240008945370500081305F56E97000000E78023
:10025000C02B1305800C97000000E780C00101450A
:1002600081449D47FDB581453705002013050500F4
:10027000E1B7611106C222C037F400E0B165938591
:1002800005B897000000E78080310C4410440D8EC3
:10029000E36EA6FE9240024421018280397106DE9F
:1002A00022DC26DAAE842AC013060002930631034C
:1002B0001305400636C663E2A4069305400626856C
:1002C00032C497000000E780002F2AC29305400641
:1002D00097000000E780A02C3384A4401375F40F2E
:1002E000A94597000000E780002DAA84A945970042
:1002F0000000E780C02AB2462246098C13E50403B9
:1003000093650403A205C58DA181A38FA6FE23805A
:10031000B600F9167916924461BF254563679500CA
:1003200013E504032380A60035A813F5F40F7D160A
:1003300032C4A94597000000E780E0272A84A94538
:1003400097000000E780A0252246898C13650403EE
:1003500093E50403A205C18DA181B246A38FA6FE39
:100360002380B6009305310113051002B2953306C0
:10037000C540024597000000E7802011F25062540A
:10038000D254216182809545232005004CC1828092
:100390000945828001458280B5C2130181FD06D2E4
:1003A00022D026CEB6842AC41385F6FF2AC032C2D4
:1003B000130546002EC6D845D4419045FD14BA9683
:1003C000B307E6409DCC0C412E842ECC63E3F500B0
:1003D0003E848325C5FF21052ACA368522863EC86C
:1003E00097000000E780401AB245C8452295C8C56D
:1003F00052456246C246E3F0C6FC9DA801468145CF
:1004000041A002450E0592452E95444185C40C41FC
:1004100005456394A40283C5050036853E863E8467
:1004200097000000E7802015014632454C45A29513
:100430004CC581A00146814535A8198E26CA2EC813
:100440003284268663E3840022863685C245B284E0
:1004500036CC97000000E7802013E246B245C8453D
:100460002695D24433069440C8C5A696E37A94FCF8
:1004700001468945224592500254F24413018102FB
:1004800010C14CC18280130181FD06D222D026CE3C
:100490002EC2AA87014432C025C2C8479847B30478
:1004A0008640B3069500924522C4A2956364D702A4
:1004B000D043329526863E8497000000E780C00C2A
:1004C000A2874844269548C4224426940246E366FF
:1004D000C4FC1DA0884300412EC626C848087000F1
:1004E00085460547BE85BE84029462459315050185
:1004F00089E5A687D244C9BF014592500254F2440F
:100500001301810282800146B746014099CD33072D
:10051000C5000347070083A7068093F70708E5DFB8
:1005200023A2E6800506E314B6FE8280034605009A
:10053000034515000D8A09CA8946631CD600371683
:1005400001401306064001A8371601401306068035
:1005500019A0371601400A05BD461842B396A600F9
:10056000BD893395A50093C5F6FFF98D4D8D08C261
:10057000828001CA2A96AA862380B6008506E39D5A
:10058000C6FE8280AA8609CA03C705007D1623809D
:10059000E600850685056DFA8280014609C9931635
:1005A000F5010581FD86ED8E369686056DF932855D
:1005B00082800146638905126307051293020002D7
:1005C00093060002BDC113D61500B75655554D8E82
:1005D0009386565513572600598E13574600598E49
:1005E00013578600598E13570601598E1346F6FF8E
:1005F00013571600F98E3737333313073733158EF9
:10060000B376E6000982798E37170F0F3696935628
:10061000460036969306F7F0758E9316860036964A
:10062000931606013696935686013DC11356150062
:1006300037575555498E13075755935726005D8EEA
:10064000935746005D8E935786005D8E9357060143
:100650005D8E1346F6FF935716007D8FB737333301
:1006600093873733198E3377F60009827D8EB7175B
:100670000F0F3A96135746003A961387F7F0798E84
:10068000131786003A96131706013A96935286017D
:10069000B38756407D466374F6000146A9A013C691
:1006A000F70129C28143138317003317C50033555F
:1006B000650013C6F6FF1696931617000DC29357E2
:1006C000F701060533E776005D8D9346F5FFAE969C
:1006D00093D3F601FD86ED8E158D0506F1BF33E649
:1006E000760011A02A86328582805B495D20000D4C
:1006F0000A0041444320636833207261773D207EC5
:100700006D56000098030008860300089403000853
:04071000900300084A
:00000001FF
