:020000040800F2
:10000000711106C097000000E7808000211106CA28
:1000100022C826C637F5FF1F8345457D938515F019
:1000200081CDB715024090410345457D137676F0AA
:100030006E056181518D88C1B72502409041371509
:100040000240719A050690C14C4141761306C6F0F4
:10005000F18D4CC10C4137060001D18D0CC10C4112
:100060009A05E3DE05FE4C41F19989054CC1A14595
:100070005041318AE31EB6FE0C4D93E555030CCD7D
:100080000945A301A10023010100630AA50037155A
:10009000014011A8371501401305058029A0371527
:1000A00001401305054081440C41C19985050CC1EF
:1000B0001385F4FD05C5370500081305C51F2695F2
:1000C000034505008D456302B50685456300B5020D
:1000D0008945631FB5041304000F51A81305006977
:1000E00097000000E780C0098144D9B70944230480
:1000F0008100A30401002800854597000000E780E7
:10010000C00A1305801697000000E78060072305EA
:100110008100A30501001305A1008145970000009F
:10012000E780A0081304800799A01304001E81A093
:1001300009452302A100A30201004800854597005C
:100140000000E780800613058007130480079700EE
:100150000000E780E00209452303A100A30301009A
:1001600013056100814597000000E78000042285A7
:1001700097000000E780C00085041DBF611106C222
:1001800022C037F400E0B165938505B89700000000
:10019000E78080050C4410440D8EE36EA6FE92406D
:1001A00002442101828003460500034515000D8AA3
:1001B00009CA8946631CD60037160140130606405B
:1001C00001A8371601401306068019A03716014012
:1001D00085893D8999C1854511A0C1653395A500E3
:1001E00008CA8280014609C99316F5010581FD867A
:1001F000ED8E369686056DF932858280000000000E
:1002000002000200010000020001000002010101E1
:1002100003010100000200000201010003000000D0
:00000001FF
