:020000040800F2
:10000000711106C097000000E780800037F5FF1FE0
:100010008345457D938515F081CDB715024090410C
:100020000345457D137676F06E056181518D88C15B
:10003000011106CE22CC26CA372502400C413714C6
:100040000240F19985050CC14840C1759385C5F002
:100050006D8D48C00840B70500014D8D08C00840AF
:100060001A05E35E05FE48407199090548C021451F
:100070004C40B189E39EA5FE084C1365550308CC9E
:100080000945A303A100230301002304A100A30445
:1000900001002800854597000000E7808021370592
:1000A00000088344C52F0C4C3706000813060630A1
:1000B0001305C52F93F6340093C626008A0636969C
:1000C000104203452500D18D0D890CCC8945630D67
:1000D000B50285456316B506370500080345D52FDB
:1000E0002AC023069100A306A1006800A14597003D
:1000F0000000E780001C230791000245A307A10030
:100100001305E100854505A8370500080345D52FEF
:100110002AC023089100A308A1000808A145970060
:100120000000E7800019230991000245A309A100FE
:1001300013052101814597000000E780A01305A069
:10014000370500080345D52F23059100A305A1001D
:100150001305A100914597000000E7808015370541
:100160000140B70500089385452F104CB7060008DD
:10017000938606310D4783C745001366160010CCE1
:1001800083C4550083C565008D8B13C627000A06FE
:10019000369614421045939714003317F70013470F
:1001A000F7FF718F0546B397F6000944BD8893F6B3
:1001B00035005D8F18C5B3159600638F8600639573
:1001C000C60293060540D0464D8ED0C6904693C5D4
:1001D000F5FFF18D8CC625A09306054090464D8E07
:1001E00090C6D046D18D11A89306054090464D8EFD
:1001F00090C6D04693C5F5FFF18D2326B5408325E3
:10020000054093E525002320B54037E500E0B7051C
:1002100010002320B51073600430F2406244D244D1
:10022000056173005010F5BF611106C2370500204B
:100230008325050085052320B5000945230001001D
:10024000A300A1002311A1003715014013050540AB
:1002500019A0130505804845058993351500130538
:10026000210097000000E780E00092402101828099
:1002700003460500034515000D8A09CA8946631C1B
:10028000D600371601401306064001A83716014074
:100290001306068019A03716014085893D8999C14A
:1002A000854511A0C1653395A50008CA8280034623
:1002B0000500034515000D8A09CA8946631CD6004E
:1002C000371601401306064001A8371601401306F1
:1002D000068019A0371601400A05BD461842B3969C
:1002E000A600BD893395A50093C5F6FFF98D4D8D08
:1002F00008C28280280200080201010002010101F7
:1003000020000000000000000400000010000000B9
:1003100003000000000000000000000002000000D8
:00000001FF
