:020000040800F2
:10000000711106C097000000E7808000711106C0E2
:1000100097000000E780200397000000E78000724F
:1000200097000000E780606C3715000813053590D5
:10003000854597000000E780805497000000E78026
:10004000E00637F5FF1F8345457D938515F081CD8B
:10005000B715024090410345457D137676F06E0555
:100060006181518D88C1B72502409041371502400A
:10007000719A050690C14C4141761306C6F0F18D88
:100080004CC10C4137060001D18D0CC10C419A05C1
:10009000E3DE05FE4C41F19989054CC1A145504173
:1000A000318AE31EB6FE8280130181F986D2A2D086
:1000B000A6CE896505657566F976938585322ECA63
:1000C000930545192EC89305064C2EC69385467692
:1000D0002EC4930585512EC21305C5A82AC05245CA
:1000E00097000000E780205A424597000000E78013
:1000F000E0541305900497000000E780E04E1305DC
:10010000200597000000E780204E0545970000007D
:10011000E780804D8545014597000000E780002A73
:100120002A84294597000000E780004CA94522CC8D
:10013000228597000000E7806028AA8529453716A8
:100140000008130656901DC5034406002AD02285D8
:10015000AE8432CE97000000E78000492685A28554
:1001600097000000E78080257246AA8502550506A3
:100170007D1579F92E8597000000E780E04613058C
:10018000002397000000E780005001459700000021
:10019000E780404337F500E00845B2452ED42AD227
:1001A00068108545501097000000E780402F0355E8
:1001B000010355E93255A2452E95924563E5A50AFE
:1001C00048185010814597000000E780402D0355E6
:1001D000810351E9525513050580130525BB82455E
:1001E00063E3A50868184C1097000000E780E01F43
:1001F0000355C1032DE90345E103130575FB25E50F
:1002000088004C1097000000E780201E0355010471
:1002100039E9034521041305E5FA31E5C8004C101E
:1002200097000000E780601C035541040DED034575
:10023000610485456319B502A8004C1097000000C1
:10024000E780A01A0355810419ED8344A104624597
:10025000A68597000000E78060162A841305000435
:1002600026D0637E9500054597000000E780600B6F
:100270001305803E97000000E78000088DB582548A
:1002800085C4E8004C1097000000E7800016035575
:10029000C10471F98345E104228597000000E780DD
:1002A000E0112A84FD14F1FC88084C10970000002E
:1002B000E780A013035501055DF5034521059375FE
:1002C000F40FE312B5FAC8088545501097000000F6
:1002D000E780E01C0355810559F55645130585E770
:1002E00093051015E371B5F802551D899335150076
:1002F0002E959DBF611106C222C037F400E0B165A2
:10030000938505B897000000E780E0490C4410444D
:100310000D8EE36EA6FE92400244210182804111BF
:1003200006C622C426C281441375F50F2AC03714AD
:10033000000813043490024563FCA402854522851D
:1003400097000000E780A0031305C003970000009A
:10035000E78080FA2285814597000000E78020022F
:100360001305800797000000E78000F98504E1B7D6
:10037000B240224492444101828003460500034575
:1003800015000D8A09CA8946631CD600371601403C
:100390001306064001A8371601401306068019A06F
:1003A0003716014085893D8999C1854511A0C165F0
:1003B0003395A50008CA8280711101462D8D1375F1
:1003C000F50F9D45937676001316F5010581A3017F
:1003D000D1007D861376C608318D13861600E3930F
:1003E000B6FE110182801301C1FD06D022CE26CCBB
:1003F000AE842AC0014501441D89A303A100280041
:100400008545268697000000E78060090355C100F6
:1004100049E12245130585E793051015637FB5046F
:1004200008088145268697000000E78040070355AD
:10043000410125E14245930585E7130600156366F2
:10044000B600834571009D8931A8130515B6930543
:10045000603F63E4A502834571009D89054533151E
:10046000B500498C138515001D46E397C5F8024574
:10047000231005002301850039A0154582452390EE
:10048000A5002391050082507244E2441301410209
:10049000828082452390A500FDB7211106CA22C89B
:1004A00026C62EC42AC008422AC240429700000035
:1004B000E7800009B7F500E08445A2452D8D058948
:1004C00005CD12453385A440930500039700000035
:1004D000E780E02EE36C85FC054582452392A5006C
:1004E00089A812453385A5409305000397000000B5
:1004F000E780E02C637A850297000000E7804004E3
:10050000B7F500E08C452246318D058979D93385D0
:1005100095409305000397000000E780402A82453C
:1005200088C12392050031A00545824523A005001E
:10053000C8C1D2404244B2446101828037150008EC
:10054000035505909375350089C90946639CC5001C
:10055000B71501409385054001A8B7150140938563
:10056000058019A0B71501408C455205718133D51E
:10057000A500058913351500828003460500034553
:1005800015000D8A09CA8946631CD600371601403A
:100590001306064001A8371601401306068019A06D
:1005A000371601400A05BD461842B396A600BD891C
:1005B0003395A50093C5F6FFF98D4D8D08C2828055
:1005C000611106C2AA85371500080315858F23110E
:1005D000A1001305210097000000E78040DA924057
:1005E00021018280211106CA22C826C681441375C2
:1005F000F50F2AC09D88A30591000245335595004B
:1006000005892AC213050023130400239700000064
:10061000E7806007124519C11304A069228597007D
:100620000000E780A001850413F5740061F5D24055
:100630004244B24461018280611106C222C02A8410
:10064000014597000000E780E0F7228592400244D0
:1006500021011703000067008300611106C222C058
:1006600037F400E09305000397000000E780A01333
:100670000C4410440D8EE36EA6FE9240024421010C
:100680008280511106C422C226C0B7F500E084451D
:100690002A8437F500E00845058D9305000397008F
:1006A0000000E780C01163778502054597000000D0
:1006B000E78040F1214597000000E78040FA0145BE
:1006C00097000000E78000F0494597000000E780B0
:1006D00000F9C1B70145A240124482443101170319
:1006E0000000670023EE411106C622C426C2B714DB
:1006F000000803C40490228597000000E780A0084A
:1007000083C4149023008100A30091000A85A145B1
:1007100097000000E780A0E623018100A30191007B
:1007200013052100854597000000E78040C5B240D1
:100730002244924441018280411106C622C426C24D
:10074000B71400089384448F03C4440022859700A3
:100750000000E780400303C5540023018100A3018A
:10076000A10013052100854597000000E78020E1E6
:100770000145B24022449244410117030000670042
:1007800063E4B715024013452500904D0D890A0515
:10079000B71600089386069136950841518D88CD8D
:1007A0008280014609C99316F5010581FD86ED8E0B
:1007B000369686056DF93285828001466389051279
:1007C000630705129302000293060002BDC113D60F
:1007D0001500B75655554D8E93865655135726001E
:1007E000598E13574600598E13578600598E13574A
:1007F0000601598E1346F6FF13571600F98E373748
:10080000333313073733158EB376E6000982798EBA
:1008100037170F0F36969356460036969306F7F025
:10082000758E931686003696931606013696935665
:1008300086013DC11356150037575555498E13078C
:100840005755935726005D8E935746005D8E9357FC
:1008500086005D8E935706015D8E1346F6FF935713
:1008600016007D8FB737333393873733198E33773D
:10087000F60009827D8EB7170F0F3A961357460080
:100880003A961387F7F0798E131786003A96131766
:1008900006013A9693528601B38756407D466374AB
:1008A000F6000146A9A013C6F70129C281431383AC
:1008B00017003317C5003355650013C6F6FF1696AB
:1008C000931617000DC29357F701060533E776001C
:1008D0005D8D9346F5FFAE9693D3F601FD86ED8EC2
:1008E000158D0506F1BF33E6760011A02A86328504
:1008F00082800000709400000200012100000000CE
:10090000020101020248454C4C4F2043483332005B
:1009100020000000000000000400000010000000A3
:00000001FF
