:020000040800F2
:10000000711106C097000000E78080001301C1FC59
:1000100006D822D626D437F5FF1F8345457D938524
:1000200015F081CDB715024090410345457D13760B
:1000300076F06E056181518D88C1B72502409041EF
:1000400037150240719A050690C14C41417613065E
:10005000C6F0F18D4CC10C4137060001D18D0CC1A9
:100060000C419A05E3DE05FE4C41F19989054CC12E
:10007000A1455041318AE31EB6FE0C4D93E5550370
:100080000CCD0944A303810023030100371501406F
:10009000631784001305054019A0130505800C4162
:1000A00037460008930706FCC19985050CC1034635
:1000B00006FC83C61700356703C5270083C53700D4
:1000C000A206558E9306E7AF0547631BD602A2052D
:1000D0004D8D85456316B50237450008130585FC2F
:1000E0000C10214609CA8346050005052380D5006A
:1000F00085057D166DFA82551255938415000DA065
:100100003ED03AD2B70500089385054B0810BE844F
:1001100097000000E78000180547A6870145854441
:100120003EC43AC626C82ACA28000C089700000018
:10013000E7804016420541812DC526C081444D45CA
:1001400063619502231C8100280897000000E78066
:10015000C00E1305200397000000E780600B8504A4
:10016000F9BF82443DA8231D81001305A1018545E7
:1001700097000000E780E0051305800C9700000061
:10018000E7800009231E8100680881459700000070
:10019000E78020041305800C97000000E7804007EB
:1001A000FD14F1F01305C05D97000000E7804006E4
:1001B000231F81001305E10197000000E780E0079D
:1001C0001305803E97000000E7808004D5B7034602
:1001D0000500034515000D8A09CA8946631CD6002F
:1001E000371601401306064001A8371601401306D2
:1001F000068019A03716014085893D8999C185453A
:1002000011A0C1653395A50008CA8280611106C29C
:1002100022C037F400E0B165938505B8970000006F
:10022000E780C0270C4410440D8EE36EA6FE92407A
:10023000024421018280611106C2834515000345F5
:100240000500A2054D8D937535002311A10089C9C4
:100250000946639CC500B71501409385054001A878
:10026000B71501409385058019A0B7150140CC450D
:100270005205718133D5A500058993351500130505
:10028000210097000000E780C0F4924021018280A5
:10029000130141FA86CCA2CAA6C83796EFCDB7069D
:1002A00067450441031545002AC288412AC0C04160
:1002B0001305B69A2AC6138536122AC44808930530
:1002C000F00F1306C00397000000E780001C3726DC
:1002D0000240356593550401231E8100231FB100A0
:1002E000824693D506011305E5AF2318A1001245F8
:1002F0002319A100231CD100231DB100084A137546
:10030000050809C5224548C2324548C2084A420587
:1003100063560500224548D2324548D2084AA165B5
:10032000938505086D8D6312051213F5F4032EC431
:1003300019C1114511A837C5FFF72695F175333559
:10034000B5003305A04015896DE597000000E780F2
:1003500040104205418171ED0945B725024088C929
:1003600013052004C4C93724024088C9970000003F
:10037000E780200E420541814DED232804009700BF
:100380000000E780000D4205418145E50545B725A0
:10039000024088C937050800050588C99700000094
:1003A000E780200B4205418149E5014437250240A1
:1003B00044C93705040005052AC61305F003636A1E
:1003C0008502080822958355250003550500C205BE
:1003D0004D8DB385840088C137250240B2450CC9D4
:1003E00097000000E780E00642054181110471D5C5
:1003F00089A013051004B725024088C997000000A2
:10040000E7802005420541810DE53725024023287C
:10041000050008089305000481CD03C60400834647
:10042000050005058504FD15E308D6FE194511A054
:100430000145372602400C4AA246D58D0CCAE6403B
:100440005644C6441301C10582800545CDBF37F52A
:10045000FCFF1305F52BB7250240D045058A09C6D8
:10046000050565FD09458280C845418909E9C845FA
:1004700013760502014519C61306000219A00D45A1
:100480004146D0C5828001CA2A96AA862380B6003A
:100490008506E39DC6FE8280014609C99316F501D3
:1004A0000581FD86ED8E369686056DF93285828052
:0804B000000000000000000044
:00000001FF
