:020000040800F2
:10000000711106C097000000E7808000011106CE44
:1000100022CC26CA37F5FF1F8345457D938515F011
:1000200081CDB715024090410345457D137676F0AA
:100030006E056181518D88C1B72502409041371509
:100040000240719A050690C14C4141761306C6F0F4
:10005000F18D4CC10C4137060001D18D0CC10C4112
:100060009A05E3DE05FE4C41F19989054CC1A14595
:100070005041318AE31EB6FE0C4D93E555030CCD7D
:100080008945A309B10091452309B1003716014004
:100090001306064019A013060680B70700408A051C
:1000A000BD46A5441842B396B600B395B40093C6B6
:1000B000F6FFF98ED58D0CC24C4D1306F00F93064A
:1000C000803E1D6793E515004CCD0545930510084E
:1000D00013078786239007002394C7022396D7022D
:1000E00023920702239CE700239EE7002390070248
:1000F000239AA7002390B700039507021365150004
:100100002390A70297000000E780A0100145B705E3
:10011000000883C5853B2EC0B7E502009385C5C6A0
:100120002EC6C165FD152EC22A840145A545E30DE5
:10013000B4FE13153400B7050008938505372E95D6
:1001400004414841B9C42AC43245A685970000003D
:10015000E780C00E92456363B5001245B24563F374
:10016000950005459305F5FF370600402316B602B6
:1001700093551500024597000000E7806003224573
:1001800097000000E780400697000000E7806008C5
:1001900019A8AA8497000000E780A0072685970089
:1001A0000000E780600413051400BDBF137635001E
:1001B0008D4637050040630ED60085466308D6009D
:1001C0008946631BD6001305C50309A813058503DB
:1001D00031A01305050419A013054503C205C1810B
:1001E0000CC18280611106C222C037F400E0B16503
:1001F000938505B897000000E780C0020C441044C6
:100200000D8EE36EA6FE92400244210182803705E6
:1002100000080345853B814517030000670043F94B
:10022000014609C99316F5010581FD86ED8E3696C6
:1002300086056DF932858280014663890512630760
:1002400005129302000293060002BDC113D61500E9
:10025000B75655554D8E9386565513572600598ED1
:1002600013574600598E13578600598E13570601AF
:10027000598E1346F6FF13571600F98E373733336E
:1002800013073733158EB376E6000982798E371758
:100290000F0F36969356460036969306F7F0758EF6
:1002A0009316860036969316060136969356860167
:1002B0003DC11356150037575555498E13075755ED
:1002C000935726005D8E935746005D8E93578600A8
:1002D0005D8E935706015D8E1346F6FF9357160009
:1002E0007D8FB737333393873733198E3377F600E3
:1002F00009827D8EB7170F0F3A96135746003A962C
:100300001387F7F0798E131786003A9613170601B4
:100310003A9693528601B38756407D466374F60041
:100320000146A9A013C6F70129C281431383170010
:100330003317C5003355650013C6F6FF169693169E
:1003400017000DC29357F701060533E776005D8D60
:100350009346F5FFAE9693D3F601FD86ED8E158D8F
:100360000506F1BF33E6760011A02A863285828029
:1003700006010000C800000026010000C8000000BF
:100380004A010000C80000005D010000C800000034
:1003900088010000C8000000B8010000C80000008B
:1003A000EE010000C80000000B02000090010000F8
:0C03B000000000005802000000000000E7
:00000001FF
