:020000040800F2
:10000000711106C097000000E78080001301C1FA5B
:1000100086C8A2C6A6C437F5FF1F8345457D9385D4
:1000200015F081CDB715024090410345457D13760B
:1000300076F06E056181518D88C1B72502409041EF
:1000400037150240719A050690C14C41417613065E
:10005000C6F0F18D4CC10C4137060001D18D0CC1A9
:100060000C419A05E3DE05FE4C41F19989054CC12E
:10007000A1455041318AE31EB6FE0C4D11661306B0
:100080001602D18D89460CCD1546A303D102230A51
:10009000C100371501401305054019A0130505805F
:1000A0000A06BD46A5421841B74501409307001A0C
:1000B0008964B396C60093C6F6FFF98E3396C200E4
:1000C000558E10C123A6058023A4F580A10423A882
:1000D000058023AA058023A69580814437F400E09B
:1000E0003775DC02130605C032C09145370500089C
:1000F0001305255797000000E780002E37050008FC
:10010000130545592ACA37050020130505002ACCD6
:10011000130500062ACE02D048086946B705000834
:100120009385A55797000000E78000234205631DD3
:1001300005107D4626C213057102B305C5001305DF
:10014000400632C82EC663E0A40693054006268505
:1001500097000000E780A02E2AC493054006970070
:100160000000E780402C3384A4401375F40FA945A8
:1001700097000000E780A02CAA84A9459700000002
:10018000E780602A4246098C13E504039365040363
:10019000A205C58DA181B2462380A600A380B6002A
:1001A0007916A24449BF2545636D95001305710476
:1001B00032959305160013E60403A300C5FE2E86B0
:1001C00025A813F5F40FA94597000000E780202724
:1001D0002A84A94597000000E780E0244246898CE4
:1001E0001365040393E50403A205C18DA181B24602
:1001F0002380A600A380B60037F400E093057102C7
:10020000B295130510023306C54048089700000058
:10021000E78080144205924405E9624582559700C3
:100220000000E780601B89453705000813057557F6
:1002300097000000E780401A084402460C44898D6C
:10024000E3EEC5FE850455B581453705002013054D
:100250000500F1B79545232005004CC18280094572
:10026000828001458280B5C2130181FD06D222D071
:1002700026CEB6842AC41385F6FF2AC032C21305DF
:1002800046002EC6D845D4419045FD14BA96B30712
:10029000E6409DCC0C412E842ECC63E3F5003E84D9
:1002A0008325C5FF21052ACA368522863EC89700C8
:1002B0000000E780E015B245C8452295C8C5524503
:1002C0006246C246E3F0C6FC9DA80146814541A0B6
:1002D00002450E0592452E95444185C40C410545C5
:1002E0006394A40283C5050036853E863E8497004C
:1002F0000000E780C010014632454C45A2954CC530
:1003000081A00146814535A8198E26CA2EC832849F
:10031000268663E3840022863685C245B28436CCC5
:1003200097000000E780C00EE246B245C84526951A
:10033000D24433069440C8C5A696E37A94FC01469D
:100340008945224592500254F2441301810210C1A2
:100350004CC18280130181FD06D222D026CE2EC24E
:10036000AA87014432C025C2C8479847B3048640D3
:10037000B3069500924522C4A2956364D702D04388
:10038000329526863E8497000000E7806008A287A9
:100390004844269548C4224426940246E366C4FC99
:1003A0001DA0884300412EC626C848087000854617
:1003B0000547BE85BE84029462459315050189E513
:1003C000A687D244C9BF014592500254F24413019A
:1003D000810282800146B746014099CD3307C500AE
:1003E0000347070083A7068093F70708E5DF23A2EA
:1003F000E6800506E314B6FE828001CA2A96AA8624
:100400002380B6008506E39DC6FE8280AA8609CABF
:1004100003C705007D162380E600850685056DFA75
:100420008280014609C99316F5010581FD86ED8E8E
:10043000369686056DF932858280014663890512FC
:10044000630705129302000293060002BDC113D692
:100450001500B75655554D8E9386565513572600A1
:10046000598E13574600598E13578600598E1357CD
:100470000601598E1346F6FF13571600F98E3737CB
:10048000333313073733158EB376E6000982798E3E
:1004900037170F0F36969356460036969306F7F0A9
:1004A000758E9316860036969316060136969356E9
:1004B00086013DC11356150037575555498E130710
:1004C0005755935726005D8E935746005D8E935780
:1004D00086005D8E935706015D8E1346F6FF935797
:1004E00016007D8FB737333393873733198E3377C1
:1004F000F60009827D8EB7170F0F3A961357460004
:100500003A961387F7F0798E131786003A961317E9
:1005100006013A9693528601B38756407D4663742E
:10052000F6000146A9A013C6F70129C2814313832F
:1005300017003317C5003355650013C6F6FF16962E
:10054000931617000DC29357F701060533E776009F
:100550005D8D9346F5FFAE9693D3F601FD86ED8E45
:10056000158D0506F1BF33E6760011A02A86328587
:1005700082805B495D20000D0A0068656C6C6F200D
:1005800066726F6D20434833325630303321207409
:1005900069636B3D660200085402000862020008AD
:0405A0005E020008EF
:00000001FF
